{
  "contractName": "LonBoost",
  "abi": [
    {
      "constant": true,
      "inputs": [],
      "name": "s",
      "outputs": [
        {
          "name": "",
          "type": "address"
        }
      ],
      "payable": false,
      "stateMutability": "view",
      "type": "function"
    },
    {
      "constant": true,
      "inputs": [],
      "name": "token",
      "outputs": [
        {
          "name": "",
          "type": "address"
        }
      ],
      "payable": false,
      "stateMutability": "view",
      "type": "function"
    },
    {
      "inputs": [
        {
          "name": "_storage",
          "type": "address"
        },
        {
          "name": "_token",
          "type": "address"
        }
      ],
      "payable": false,
      "stateMutability": "nonpayable",
      "type": "constructor"
    },
    {
      "anonymous": false,
      "inputs": [
        {
          "indexed": false,
          "name": "guid",
          "type": "uint256"
        }
      ],
      "name": "BoostSent",
      "type": "event"
    },
    {
      "anonymous": false,
      "inputs": [
        {
          "indexed": false,
          "name": "guid",
          "type": "uint256"
        }
      ],
      "name": "BoostAccepted",
      "type": "event"
    },
    {
      "anonymous": false,
      "inputs": [
        {
          "indexed": false,
          "name": "guid",
          "type": "uint256"
        }
      ],
      "name": "BoostRejected",
      "type": "event"
    },
    {
      "anonymous": false,
      "inputs": [
        {
          "indexed": false,
          "name": "guid",
          "type": "uint256"
        }
      ],
      "name": "BoostRevoked",
      "type": "event"
    },
    {
      "constant": true,
      "inputs": [],
      "name": "canIBoost",
      "outputs": [
        {
          "name": "",
          "type": "bool"
        }
      ],
      "payable": false,
      "stateMutability": "view",
      "type": "function"
    },
    {
      "constant": false,
      "inputs": [
        {
          "name": "_from",
          "type": "address"
        },
        {
          "name": "_value",
          "type": "uint256"
        },
        {
          "name": "_tokenContract",
          "type": "address"
        },
        {
          "name": "_extraData",
          "type": "bytes"
        }
      ],
      "name": "receiveApproval",
      "outputs": [
        {
          "name": "",
          "type": "bool"
        }
      ],
      "payable": false,
      "stateMutability": "nonpayable",
      "type": "function"
    },
    {
      "constant": false,
      "inputs": [
        {
          "name": "guid",
          "type": "uint256"
        },
        {
          "name": "receiver",
          "type": "address"
        },
        {
          "name": "amount",
          "type": "uint256"
        },
        {
          "name": "checksum",
          "type": "uint256"
        }
      ],
      "name": "boost",
      "outputs": [
        {
          "name": "",
          "type": "bool"
        }
      ],
      "payable": false,
      "stateMutability": "nonpayable",
      "type": "function"
    },
    {
      "constant": false,
      "inputs": [
        {
          "name": "guid",
          "type": "uint256"
        }
      ],
      "name": "accept",
      "outputs": [],
      "payable": false,
      "stateMutability": "nonpayable",
      "type": "function"
    },
    {
      "constant": false,
      "inputs": [
        {
          "name": "guid",
          "type": "uint256"
        }
      ],
      "name": "reject",
      "outputs": [],
      "payable": false,
      "stateMutability": "nonpayable",
      "type": "function"
    },
    {
      "constant": false,
      "inputs": [
        {
          "name": "guid",
          "type": "uint256"
        }
      ],
      "name": "revoke",
      "outputs": [],
      "payable": false,
      "stateMutability": "nonpayable",
      "type": "function"
    }
  ],
  "bytecode": "0x608060405234801561001057600080fd5b50604051604080611bd9833981018060405281019080805190602001909291908051906020019092919050505081600160006101000a81548173ffffffffffffffffffffffffffffffffffffffff021916908373ffffffffffffffffffffffffffffffffffffffff160217905550806000806101000a81548173ffffffffffffffffffffffffffffffffffffffff021916908373ffffffffffffffffffffffffffffffffffffffff1602179055505050611b0a806100cf6000396000f30060806040526004361061008e576000357c0100000000000000000000000000000000000000000000000000000000900463ffffffff1680630514f9291461009357806319b05f491461010c57806320c5429b1461013957806386b714e2146101665780638b6d1ad4146101bd5780638f4ffcb1146101ec578063b8adaa11146102b7578063fc0c546a146102e4575b600080fd5b34801561009f57600080fd5b506100f260048036038101908080359060200190929190803573ffffffffffffffffffffffffffffffffffffffff169060200190929190803590602001909291908035906020019092919050505061033b565b604051808215151515815260200191505060405180910390f35b34801561011857600080fd5b5061013760048036038101908080359060200190929190505050610354565b005b34801561014557600080fd5b5061016460048036038101908080359060200190929190505050610807565b005b34801561017257600080fd5b5061017b610cba565b604051808273ffffffffffffffffffffffffffffffffffffffff1673ffffffffffffffffffffffffffffffffffffffff16815260200191505060405180910390f35b3480156101c957600080fd5b506101d2610ce0565b604051808215151515815260200191505060405180910390f35b3480156101f857600080fd5b5061029d600480360381019080803573ffffffffffffffffffffffffffffffffffffffff16906020019092919080359060200190929190803573ffffffffffffffffffffffffffffffffffffffff169060200190929190803590602001908201803590602001908080601f0160208091040260200160405190810160405280939291908181526020018383808284378201915050505050509192919290505050610f33565b604051808215151515815260200191505060405180910390f35b3480156102c357600080fd5b506102e260048036038101908080359060200190929190505050610ff5565b005b3480156102f057600080fd5b506102f96114a8565b604051808273ffffffffffffffffffffffffffffffffffffffff1673ffffffffffffffffffffffffffffffffffffffff16815260200191505060405180910390f35b600061034a33868686866114cd565b9050949350505050565b61035c611a80565b600160009054906101000a900473ffffffffffffffffffffffffffffffffffffffff1673ffffffffffffffffffffffffffffffffffffffff16634afd82e7836040518263ffffffff167c01000000000000000000000000000000000000000000000000000000000281526004018082815260200191505060a060405180830381600087803b1580156103ed57600080fd5b505af1158015610401573d6000803e3d6000fd5b505050506040513d60a081101561041757600080fd5b8101908080519060200190929190805190602001909291908051906020019092919080519060200190929190805190602001909291905050508560000186602001876040018860600189608001851515151581525085815250858152508573ffffffffffffffffffffffffffffffffffffffff1673ffffffffffffffffffffffffffffffffffffffff168152508573ffffffffffffffffffffffffffffffffffffffff1673ffffffffffffffffffffffffffffffffffffffff16815250505050505060001515816080015115151415156104f057600080fd5b3373ffffffffffffffffffffffffffffffffffffffff16816020015173ffffffffffffffffffffffffffffffffffffffff1614151561052e57600080fd5b600160009054906101000a900473ffffffffffffffffffffffffffffffffffffffff1673ffffffffffffffffffffffffffffffffffffffff166354aee1b983836000015184602001518560400151866060015160016040518763ffffffff167c0100000000000000000000000000000000000000000000000000000000028152600401808781526020018673ffffffffffffffffffffffffffffffffffffffff1673ffffffffffffffffffffffffffffffffffffffff1681526020018573ffffffffffffffffffffffffffffffffffffffff1673ffffffffffffffffffffffffffffffffffffffff168152602001848152602001838152602001821515151581526020019650505050505050602060405180830381600087803b15801561065457600080fd5b505af1158015610668573d6000803e3d6000fd5b505050506040513d602081101561067e57600080fd5b8101908080519060200190929190505050506000809054906101000a900473ffffffffffffffffffffffffffffffffffffffff1673ffffffffffffffffffffffffffffffffffffffff166323b872dd30836020015184604001516040518463ffffffff167c0100000000000000000000000000000000000000000000000000000000028152600401808473ffffffffffffffffffffffffffffffffffffffff1673ffffffffffffffffffffffffffffffffffffffff1681526020018373ffffffffffffffffffffffffffffffffffffffff1673ffffffffffffffffffffffffffffffffffffffff1681526020018281526020019350505050602060405180830381600087803b15801561079057600080fd5b505af11580156107a4573d6000803e3d6000fd5b505050506040513d60208110156107ba57600080fd5b8101908080519060200190929190505050507fd7ccb5dc8647fd89286a201b04b5e65fb7b5e281603e972695fd35f52bbd244b826040518082815260200191505060405180910390a15050565b61080f611a80565b600160009054906101000a900473ffffffffffffffffffffffffffffffffffffffff1673ffffffffffffffffffffffffffffffffffffffff16634afd82e7836040518263ffffffff167c01000000000000000000000000000000000000000000000000000000000281526004018082815260200191505060a060405180830381600087803b1580156108a057600080fd5b505af11580156108b4573d6000803e3d6000fd5b505050506040513d60a08110156108ca57600080fd5b8101908080519060200190929190805190602001909291908051906020019092919080519060200190929190805190602001909291905050508560000186602001876040018860600189608001851515151581525085815250858152508573ffffffffffffffffffffffffffffffffffffffff1673ffffffffffffffffffffffffffffffffffffffff168152508573ffffffffffffffffffffffffffffffffffffffff1673ffffffffffffffffffffffffffffffffffffffff16815250505050505060001515816080015115151415156109a357600080fd5b3373ffffffffffffffffffffffffffffffffffffffff16816000015173ffffffffffffffffffffffffffffffffffffffff161415156109e157600080fd5b600160009054906101000a900473ffffffffffffffffffffffffffffffffffffffff1673ffffffffffffffffffffffffffffffffffffffff166354aee1b983836000015184602001518560400151866060015160016040518763ffffffff167c0100000000000000000000000000000000000000000000000000000000028152600401808781526020018673ffffffffffffffffffffffffffffffffffffffff1673ffffffffffffffffffffffffffffffffffffffff1681526020018573ffffffffffffffffffffffffffffffffffffffff1673ffffffffffffffffffffffffffffffffffffffff168152602001848152602001838152602001821515151581526020019650505050505050602060405180830381600087803b158015610b0757600080fd5b505af1158015610b1b573d6000803e3d6000fd5b505050506040513d6020811015610b3157600080fd5b8101908080519060200190929190505050506000809054906101000a900473ffffffffffffffffffffffffffffffffffffffff1673ffffffffffffffffffffffffffffffffffffffff166323b872dd30836000015184604001516040518463ffffffff167c0100000000000000000000000000000000000000000000000000000000028152600401808473ffffffffffffffffffffffffffffffffffffffff1673ffffffffffffffffffffffffffffffffffffffff1681526020018373ffffffffffffffffffffffffffffffffffffffff1673ffffffffffffffffffffffffffffffffffffffff1681526020018281526020019350505050602060405180830381600087803b158015610c4357600080fd5b505af1158015610c57573d6000803e3d6000fd5b505050506040513d6020811015610c6d57600080fd5b8101908080519060200190929190505050507f0b869ea800008714ae430dc6c4e12a2c880d50fb92937d51a4b223af34040971826040518082815260200191505060405180910390a15050565b600160009054906101000a900473ffffffffffffffffffffffffffffffffffffffff1681565b60008060008060009054906101000a900473ffffffffffffffffffffffffffffffffffffffff1673ffffffffffffffffffffffffffffffffffffffff166370a08231336040518263ffffffff167c0100000000000000000000000000000000000000000000000000000000028152600401808273ffffffffffffffffffffffffffffffffffffffff1673ffffffffffffffffffffffffffffffffffffffff168152602001915050602060405180830381600087803b158015610da157600080fd5b505af1158015610db5573d6000803e3d6000fd5b505050506040513d6020811015610dcb57600080fd5b810190808051906020019092919050505091506000809054906101000a900473ffffffffffffffffffffffffffffffffffffffff1673ffffffffffffffffffffffffffffffffffffffff1663dd62ed3e33306040518363ffffffff167c0100000000000000000000000000000000000000000000000000000000028152600401808373ffffffffffffffffffffffffffffffffffffffff1673ffffffffffffffffffffffffffffffffffffffff1681526020018273ffffffffffffffffffffffffffffffffffffffff1673ffffffffffffffffffffffffffffffffffffffff16815260200192505050602060405180830381600087803b158015610ece57600080fd5b505af1158015610ee2573d6000803e3d6000fd5b505050506040513d6020811015610ef857600080fd5b81019080805190602001909291905050509050600081118015610f1b5750600082115b15610f295760019250610f2e565b600092505b505090565b6000806000806000809054906101000a900473ffffffffffffffffffffffffffffffffffffffff1673ffffffffffffffffffffffffffffffffffffffff163373ffffffffffffffffffffffffffffffffffffffff16141515610f9457600080fd5b60009250600091506000905060608501519050604085015192506020850151915060008273ffffffffffffffffffffffffffffffffffffffff1614151515610fdb57600080fd5b610fe88884848a856114cd565b9350505050949350505050565b610ffd611a80565b600160009054906101000a900473ffffffffffffffffffffffffffffffffffffffff1673ffffffffffffffffffffffffffffffffffffffff16634afd82e7836040518263ffffffff167c01000000000000000000000000000000000000000000000000000000000281526004018082815260200191505060a060405180830381600087803b15801561108e57600080fd5b505af11580156110a2573d6000803e3d6000fd5b505050506040513d60a08110156110b857600080fd5b8101908080519060200190929190805190602001909291908051906020019092919080519060200190929190805190602001909291905050508560000186602001876040018860600189608001851515151581525085815250858152508573ffffffffffffffffffffffffffffffffffffffff1673ffffffffffffffffffffffffffffffffffffffff168152508573ffffffffffffffffffffffffffffffffffffffff1673ffffffffffffffffffffffffffffffffffffffff168152505050505050600015158160800151151514151561119157600080fd5b3373ffffffffffffffffffffffffffffffffffffffff16816020015173ffffffffffffffffffffffffffffffffffffffff161415156111cf57600080fd5b600160009054906101000a900473ffffffffffffffffffffffffffffffffffffffff1673ffffffffffffffffffffffffffffffffffffffff166354aee1b983836000015184602001518560400151866060015160016040518763ffffffff167c0100000000000000000000000000000000000000000000000000000000028152600401808781526020018673ffffffffffffffffffffffffffffffffffffffff1673ffffffffffffffffffffffffffffffffffffffff1681526020018573ffffffffffffffffffffffffffffffffffffffff1673ffffffffffffffffffffffffffffffffffffffff168152602001848152602001838152602001821515151581526020019650505050505050602060405180830381600087803b1580156112f557600080fd5b505af1158015611309573d6000803e3d6000fd5b505050506040513d602081101561131f57600080fd5b8101908080519060200190929190505050506000809054906101000a900473ffffffffffffffffffffffffffffffffffffffff1673ffffffffffffffffffffffffffffffffffffffff166323b872dd30836000015184604001516040518463ffffffff167c0100000000000000000000000000000000000000000000000000000000028152600401808473ffffffffffffffffffffffffffffffffffffffff1673ffffffffffffffffffffffffffffffffffffffff1681526020018373ffffffffffffffffffffffffffffffffffffffff1673ffffffffffffffffffffffffffffffffffffffff1681526020018281526020019350505050602060405180830381600087803b15801561143157600080fd5b505af1158015611445573d6000803e3d6000fd5b505050506040513d602081101561145b57600080fd5b8101908080519060200190929190505050507fc43f9053be9f0ee374d3f8eb929d2e0aa990d33a7d4a51423cb715228d39ab89826040518082815260200191505060405180910390a15050565b6000809054906101000a900473ffffffffffffffffffffffffffffffffffffffff1681565b60006114d7611a80565b6000841115156114e657600080fd5b600160009054906101000a900473ffffffffffffffffffffffffffffffffffffffff1673ffffffffffffffffffffffffffffffffffffffff16634afd82e7876040518263ffffffff167c01000000000000000000000000000000000000000000000000000000000281526004018082815260200191505060a060405180830381600087803b15801561157757600080fd5b505af115801561158b573d6000803e3d6000fd5b505050506040513d60a08110156115a157600080fd5b8101908080519060200190929190805190602001909291908051906020019092919080519060200190929190805190602001909291905050508560000186602001876040018860600189608001851515151581525085815250858152508573ffffffffffffffffffffffffffffffffffffffff1673ffffffffffffffffffffffffffffffffffffffff168152508573ffffffffffffffffffffffffffffffffffffffff1673ffffffffffffffffffffffffffffffffffffffff1681525050505050506000816000015173ffffffffffffffffffffffffffffffffffffffff1614151561168c57600080fd5b6000816020015173ffffffffffffffffffffffffffffffffffffffff161415156116b557600080fd5b6000809054906101000a900473ffffffffffffffffffffffffffffffffffffffff1673ffffffffffffffffffffffffffffffffffffffff166323b872dd8830876040518463ffffffff167c0100000000000000000000000000000000000000000000000000000000028152600401808473ffffffffffffffffffffffffffffffffffffffff1673ffffffffffffffffffffffffffffffffffffffff1681526020018373ffffffffffffffffffffffffffffffffffffffff1673ffffffffffffffffffffffffffffffffffffffff1681526020018281526020019350505050602060405180830381600087803b1580156117ad57600080fd5b505af11580156117c1573d6000803e3d6000fd5b505050506040513d60208110156117d757600080fd5b8101908080519060200190929190505050506000809054906101000a900473ffffffffffffffffffffffffffffffffffffffff1673ffffffffffffffffffffffffffffffffffffffff1663095ea7b330866040518363ffffffff167c0100000000000000000000000000000000000000000000000000000000028152600401808373ffffffffffffffffffffffffffffffffffffffff1673ffffffffffffffffffffffffffffffffffffffff16815260200182815260200192505050602060405180830381600087803b1580156118ad57600080fd5b505af11580156118c1573d6000803e3d6000fd5b505050506040513d60208110156118d757600080fd5b810190808051906020019092919050505050600160009054906101000a900473ffffffffffffffffffffffffffffffffffffffff1673ffffffffffffffffffffffffffffffffffffffff166354aee1b9878988888860006040518763ffffffff167c0100000000000000000000000000000000000000000000000000000000028152600401808781526020018673ffffffffffffffffffffffffffffffffffffffff1673ffffffffffffffffffffffffffffffffffffffff1681526020018573ffffffffffffffffffffffffffffffffffffffff1673ffffffffffffffffffffffffffffffffffffffff168152602001848152602001838152602001821515151581526020019650505050505050602060405180830381600087803b1580156119ff57600080fd5b505af1158015611a13573d6000803e3d6000fd5b505050506040513d6020811015611a2957600080fd5b8101908080519060200190929190505050507f68170a430a4e2c3743702c7f839f5230244aca61ed306ec622a5f393f9559040866040518082815260200191505060405180910390a1600191505095945050505050565b60a060405190810160405280600073ffffffffffffffffffffffffffffffffffffffff168152602001600073ffffffffffffffffffffffffffffffffffffffff168152602001600081526020016000815260200160001515815250905600a165627a7a7230582048a477502a77fc5304ad0ee8f281235f71d3d95e30d4b5d97a4ffd908055176a0029",
  "source": "pragma solidity ^0.4.24;\n\nimport './LonToken.sol';\nimport './LonBoostStorage.sol';\n\ncontract LonBoost {\n\n  struct Boost {\n    address sender;\n    address receiver;\n    uint value;\n    uint256 checksum;\n    bool locked; //if the user has already interacted with\n  }\n\n  LonToken public token;\n  LonBoostStorage public s;\n\n  /**\n   * event for boost being created\n   * @param guid - the guid of the boost\n   */\n  event BoostSent(uint256 guid);\n\n  /**\n   * event for boost being accepted\n   * @param guid - the guid of the boost\n   */\n  event BoostAccepted(uint256 guid);\n\n  /**\n   * event for boost being rejected\n   * @param guid - the guid of the boost\n   */\n  event BoostRejected(uint256 guid);\n\n  /**\n   * event for boost being revoked\n   * @param guid - the guid of the boost\n   */\n  event BoostRevoked(uint256 guid);\n\n  constructor(address _storage, address _token) public {\n    s = LonBoostStorage(_storage);\n    token = LonToken(_token);\n  }\n\n  function canIBoost() public view returns (bool) {\n    uint balance = token.balanceOf(msg.sender);\n    uint allowed = token.allowance(msg.sender, address(this));\n\n    if (allowed > 0 && balance > 0) {\n      return true;\n    }\n\n    return false;\n  }\n\n  function receiveApproval(address _from, uint256 _value, address _tokenContract, bytes _extraData) public returns (bool) {\n\n    require(msg.sender == address(token));\n\n    uint256 _guid = 0;\n    address _receiver = 0x0;\n    uint256 _checksum = 0;\n\n    assembly {\n      // Load the raw bytes into the respective variables to avoid any sort of costly\n      // conversion.\n      _checksum := mload(add(_extraData, 0x60))\n      _guid := mload(add(_extraData, 0x40))\n      _receiver := mload(add(_extraData, 0x20))\n    }\n\n    require(_receiver != 0x0);\n\n    return boostFrom(_from, _guid, _receiver, _value, _checksum);\n  }\n\n  function boost(uint256 guid, address receiver, uint amount, uint256 checksum) public returns (bool) {\n    return boostFrom(msg.sender, guid, receiver, amount, checksum);\n  }\n\n  function boostFrom(address sender, uint256 guid, address receiver, uint amount, uint256 checksum) private returns (bool) {\n\n    //make sure our boost is for over 0\n    require(amount > 0);\n\n    Boost memory _boost;\n\n    //get the boost\n    (_boost.sender, _boost.receiver, _boost.value, _boost.checksum, _boost.locked) = s.boosts(guid);\n\n    //must not exists\n    require(_boost.sender == 0);\n    require(_boost.receiver == 0);\n\n    //spend tokens and store here\n    token.transferFrom(sender, address(this), amount);\n\n    //allow this contract to spend those tokens later\n    token.approve(address(this), amount);\n\n    //store boost\n    s.upsert(guid, sender, receiver, amount, checksum, false);\n\n    //send event\n    emit BoostSent(guid);\n    return true;\n  }\n\n  function accept(uint256 guid) public {\n\n    Boost memory _boost;\n\n    //get the boost\n    (_boost.sender, _boost.receiver, _boost.value, _boost.checksum, _boost.locked) = s.boosts(guid);\n\n    //do not do anything if we've aleady started accepting/rejecting\n    require(_boost.locked == false);\n\n    //check the receiver is the person accepting\n    require(_boost.receiver == msg.sender);\n    \n    //lock\n    s.upsert(guid, _boost.sender, _boost.receiver, _boost.value,  _boost.checksum, true);\n\n    //send tokens to the receiver\n    token.transferFrom(address(this), _boost.receiver, _boost.value);\n\n    //send event\n    emit BoostAccepted(guid);\n  }\n\n  function reject(uint256 guid) public {\n    Boost memory _boost;\n\n    //get the boost\n    (_boost.sender, _boost.receiver, _boost.value, _boost.checksum, _boost.locked) = s.boosts(guid);\n\n    //do not do anything if we've aleady started accepting/rejecting\n    require(_boost.locked == false);\n\n    //check the receiver is the person accepting\n    require(_boost.receiver == msg.sender);\n    \n    //lock\n    s.upsert(guid, _boost.sender, _boost.receiver, _boost.value, _boost.checksum, true);\n\n    //send tokens back to sender\n    token.transferFrom(address(this), _boost.sender, _boost.value);\n\n    //send event\n    emit BoostRejected(guid);\n  }\n\n  function revoke(uint256 guid) public {\n    Boost memory _boost;\n\n    //get the boost\n    (_boost.sender, _boost.receiver, _boost.value, _boost.checksum, _boost.locked) = s.boosts(guid);\n\n    //do not do anything if we've aleady started accepting/rejecting\n    require(_boost.locked == false);\n\n    //check the receiver is the person accepting\n    require(_boost.sender == msg.sender);\n    \n    //lock\n    s.upsert(guid, _boost.sender, _boost.receiver, _boost.value, _boost.checksum, true);\n\n    //send tokens back to sender\n    token.transferFrom(address(this), _boost.sender, _boost.value);\n\n    //send event\n    emit BoostRevoked(guid);\n  }\n\n}",
  "sourcePath": "/Users/shakieraleonard/Desktop/Dev/crypto/contracts/LonBoost.sol",
  "compiler": {
    "name": "solc",
    "version": "0.4.26+commit.4563c3fc.Emscripten.clang"
  },
  "schemaVersion": "2.0.3",
  "updatedAt": "2020-08-31T11:58:10.361Z"
}