{
  "contractName": "LonTokenSaleEvent",
  "abi": [
    {
      "constant": true,
      "inputs": [
        {
          "name": "_operator",
          "type": "address"
        },
        {
          "name": "_role",
          "type": "string"
        }
      ],
      "name": "checkRole",
      "outputs": [],
      "payable": false,
      "stateMutability": "view",
      "type": "function"
    },
    {
      "constant": true,
      "inputs": [],
      "name": "ROLE_WHITELISTED",
      "outputs": [
        {
          "name": "",
          "type": "string"
        }
      ],
      "payable": false,
      "stateMutability": "view",
      "type": "function"
    },
    {
      "constant": true,
      "inputs": [
        {
          "name": "_operator",
          "type": "address"
        },
        {
          "name": "_role",
          "type": "string"
        }
      ],
      "name": "hasRole",
      "outputs": [
        {
          "name": "",
          "type": "bool"
        }
      ],
      "payable": false,
      "stateMutability": "view",
      "type": "function"
    },
    {
      "constant": false,
      "inputs": [
        {
          "name": "_operators",
          "type": "address[]"
        }
      ],
      "name": "removeAddressesFromWhitelist",
      "outputs": [],
      "payable": false,
      "stateMutability": "nonpayable",
      "type": "function"
    },
    {
      "constant": false,
      "inputs": [
        {
          "name": "_operator",
          "type": "address"
        }
      ],
      "name": "removeAddressFromWhitelist",
      "outputs": [],
      "payable": false,
      "stateMutability": "nonpayable",
      "type": "function"
    },
    {
      "constant": true,
      "inputs": [],
      "name": "rate",
      "outputs": [
        {
          "name": "",
          "type": "uint256"
        }
      ],
      "payable": false,
      "stateMutability": "view",
      "type": "function"
    },
    {
      "constant": true,
      "inputs": [],
      "name": "weiRaised",
      "outputs": [
        {
          "name": "",
          "type": "uint256"
        }
      ],
      "payable": false,
      "stateMutability": "view",
      "type": "function"
    },
    {
      "constant": true,
      "inputs": [],
      "name": "wallet",
      "outputs": [
        {
          "name": "",
          "type": "address"
        }
      ],
      "payable": false,
      "stateMutability": "view",
      "type": "function"
    },
    {
      "constant": false,
      "inputs": [],
      "name": "renounceOwnership",
      "outputs": [],
      "payable": false,
      "stateMutability": "nonpayable",
      "type": "function"
    },
    {
      "constant": false,
      "inputs": [
        {
          "name": "_operator",
          "type": "address"
        }
      ],
      "name": "addAddressToWhitelist",
      "outputs": [],
      "payable": false,
      "stateMutability": "nonpayable",
      "type": "function"
    },
    {
      "constant": true,
      "inputs": [],
      "name": "owner",
      "outputs": [
        {
          "name": "",
          "type": "address"
        }
      ],
      "payable": false,
      "stateMutability": "view",
      "type": "function"
    },
    {
      "constant": true,
      "inputs": [
        {
          "name": "_operator",
          "type": "address"
        }
      ],
      "name": "whitelist",
      "outputs": [
        {
          "name": "",
          "type": "bool"
        }
      ],
      "payable": false,
      "stateMutability": "view",
      "type": "function"
    },
    {
      "constant": true,
      "inputs": [
        {
          "name": "",
          "type": "address"
        }
      ],
      "name": "outstanding",
      "outputs": [
        {
          "name": "",
          "type": "uint256"
        }
      ],
      "payable": false,
      "stateMutability": "view",
      "type": "function"
    },
    {
      "constant": false,
      "inputs": [
        {
          "name": "_operators",
          "type": "address[]"
        }
      ],
      "name": "addAddressesToWhitelist",
      "outputs": [],
      "payable": false,
      "stateMutability": "nonpayable",
      "type": "function"
    },
    {
      "constant": false,
      "inputs": [
        {
          "name": "_newOwner",
          "type": "address"
        }
      ],
      "name": "transferOwnership",
      "outputs": [],
      "payable": false,
      "stateMutability": "nonpayable",
      "type": "function"
    },
    {
      "constant": true,
      "inputs": [],
      "name": "token",
      "outputs": [
        {
          "name": "",
          "type": "address"
        }
      ],
      "payable": false,
      "stateMutability": "view",
      "type": "function"
    },
    {
      "inputs": [
        {
          "name": "_rate",
          "type": "uint256"
        },
        {
          "name": "_wallet",
          "type": "address"
        },
        {
          "name": "_token",
          "type": "address"
        }
      ],
      "payable": false,
      "stateMutability": "nonpayable",
      "type": "constructor"
    },
    {
      "payable": true,
      "stateMutability": "payable",
      "type": "fallback"
    },
    {
      "anonymous": false,
      "inputs": [
        {
          "indexed": false,
          "name": "purchaser",
          "type": "address"
        },
        {
          "indexed": false,
          "name": "tokens",
          "type": "uint256"
        }
      ],
      "name": "TokenPurchase",
      "type": "event"
    },
    {
      "anonymous": false,
      "inputs": [
        {
          "indexed": false,
          "name": "purchaser",
          "type": "address"
        },
        {
          "indexed": false,
          "name": "tokens",
          "type": "uint256"
        }
      ],
      "name": "TokenIssue",
      "type": "event"
    },
    {
      "anonymous": false,
      "inputs": [
        {
          "indexed": false,
          "name": "purchaser",
          "type": "address"
        },
        {
          "indexed": false,
          "name": "tokens",
          "type": "uint256"
        }
      ],
      "name": "TokenDecline",
      "type": "event"
    },
    {
      "anonymous": false,
      "inputs": [
        {
          "indexed": true,
          "name": "operator",
          "type": "address"
        },
        {
          "indexed": false,
          "name": "role",
          "type": "string"
        }
      ],
      "name": "RoleAdded",
      "type": "event"
    },
    {
      "anonymous": false,
      "inputs": [
        {
          "indexed": true,
          "name": "operator",
          "type": "address"
        },
        {
          "indexed": false,
          "name": "role",
          "type": "string"
        }
      ],
      "name": "RoleRemoved",
      "type": "event"
    },
    {
      "anonymous": false,
      "inputs": [
        {
          "indexed": true,
          "name": "previousOwner",
          "type": "address"
        }
      ],
      "name": "OwnershipRenounced",
      "type": "event"
    },
    {
      "anonymous": false,
      "inputs": [
        {
          "indexed": true,
          "name": "previousOwner",
          "type": "address"
        },
        {
          "indexed": true,
          "name": "newOwner",
          "type": "address"
        }
      ],
      "name": "OwnershipTransferred",
      "type": "event"
    },
    {
      "constant": false,
      "inputs": [
        {
          "name": "beneficiary",
          "type": "address"
        }
      ],
      "name": "buyTokens",
      "outputs": [],
      "payable": true,
      "stateMutability": "payable",
      "type": "function"
    },
    {
      "constant": false,
      "inputs": [
        {
          "name": "beneficiary",
          "type": "address"
        },
        {
          "name": "tokens",
          "type": "uint256"
        }
      ],
      "name": "issue",
      "outputs": [],
      "payable": false,
      "stateMutability": "nonpayable",
      "type": "function"
    },
    {
      "constant": false,
      "inputs": [
        {
          "name": "beneficiary",
          "type": "address"
        },
        {
          "name": "tokens",
          "type": "uint256"
        }
      ],
      "name": "decline",
      "outputs": [],
      "payable": false,
      "stateMutability": "nonpayable",
      "type": "function"
    }
  ],
  "bytecode": "0x608060405234801561001057600080fd5b50604051606080611bb5833981018060405281019080805190602001909291908051906020019092919080519060200190929190505050336000806101000a81548173ffffffffffffffffffffffffffffffffffffffff021916908373ffffffffffffffffffffffffffffffffffffffff16021790555060008311151561009657600080fd5b600073ffffffffffffffffffffffffffffffffffffffff168273ffffffffffffffffffffffffffffffffffffffff16141515156100d257600080fd5b80600260006101000a81548173ffffffffffffffffffffffffffffffffffffffff021916908373ffffffffffffffffffffffffffffffffffffffff1602179055508260048190555081600360006101000a81548173ffffffffffffffffffffffffffffffffffffffff021916908373ffffffffffffffffffffffffffffffffffffffff160217905550505050611a488061016d6000396000f300608060405260043610610107576000357c0100000000000000000000000000000000000000000000000000000000900463ffffffff1680630988ca8c1461011257806318b919e91461019b578063217fe6c61461022b57806324953eaa146102cc578063286dd3f5146103325780632c4e722e146103755780634042b66f146103a0578063521eb273146103cb578063715018a6146104225780637b9417c814610439578063867904b41461047c5780638da5cb5b146104c957806392635c59146105205780639b19251a1461056d578063de58bafa146105c8578063e2ec6ec31461061f578063ec8ac4d814610685578063f2fde38b146106bb578063fc0c546a146106fe575b61011033610755565b005b34801561011e57600080fd5b50610199600480360381019080803573ffffffffffffffffffffffffffffffffffffffff169060200190929190803590602001908201803590602001908080601f016020809104026020016040519081016040528093929190818152602001838380828437820191505050505050919291929050505061085e565b005b3480156101a757600080fd5b506101b06108df565b6040518080602001828103825283818151815260200191508051906020019080838360005b838110156101f05780820151818401526020810190506101d5565b50505050905090810190601f16801561021d5780820380516001836020036101000a031916815260200191505b509250505060405180910390f35b34801561023757600080fd5b506102b2600480360381019080803573ffffffffffffffffffffffffffffffffffffffff169060200190929190803590602001908201803590602001908080601f0160208091040260200160405190810160405280939291908181526020018383808284378201915050505050509192919290505050610918565b604051808215151515815260200191505060405180910390f35b3480156102d857600080fd5b506103306004803603810190808035906020019082018035906020019080806020026020016040519081016040528093929190818152602001838360200280828437820191505050505050919291929050505061099f565b005b34801561033e57600080fd5b50610373600480360381019080803573ffffffffffffffffffffffffffffffffffffffff169060200190929190505050610a3b565b005b34801561038157600080fd5b5061038a610ad8565b6040518082815260200191505060405180910390f35b3480156103ac57600080fd5b506103b5610ade565b6040518082815260200191505060405180910390f35b3480156103d757600080fd5b506103e0610ae4565b604051808273ffffffffffffffffffffffffffffffffffffffff1673ffffffffffffffffffffffffffffffffffffffff16815260200191505060405180910390f35b34801561042e57600080fd5b50610437610b0a565b005b34801561044557600080fd5b5061047a600480360381019080803573ffffffffffffffffffffffffffffffffffffffff169060200190929190505050610c0c565b005b34801561048857600080fd5b506104c7600480360381019080803573ffffffffffffffffffffffffffffffffffffffff16906020019092919080359060200190929190505050610ca9565b005b3480156104d557600080fd5b506104de610ecf565b604051808273ffffffffffffffffffffffffffffffffffffffff1673ffffffffffffffffffffffffffffffffffffffff16815260200191505060405180910390f35b34801561052c57600080fd5b5061056b600480360381019080803573ffffffffffffffffffffffffffffffffffffffff16906020019092919080359060200190929190505050610ef4565b005b34801561057957600080fd5b506105ae600480360381019080803573ffffffffffffffffffffffffffffffffffffffff16906020019092919050505061111f565b604051808215151515815260200191505060405180910390f35b3480156105d457600080fd5b50610609600480360381019080803573ffffffffffffffffffffffffffffffffffffffff169060200190929190505050611167565b6040518082815260200191505060405180910390f35b34801561062b57600080fd5b506106836004803603810190808035906020019082018035906020019080806020026020016040519081016040528093929190818152602001838360200280828437820191505050505050919291929050505061117f565b005b6106b9600480360381019080803573ffffffffffffffffffffffffffffffffffffffff169060200190929190505050610755565b005b3480156106c757600080fd5b506106fc600480360381019080803573ffffffffffffffffffffffffffffffffffffffff16906020019092919050505061121b565b005b34801561070a57600080fd5b50610713611282565b604051808273ffffffffffffffffffffffffffffffffffffffff1673ffffffffffffffffffffffffffffffffffffffff16815260200191505060405180910390f35b600080600073ffffffffffffffffffffffffffffffffffffffff168373ffffffffffffffffffffffffffffffffffffffff161415151561079457600080fd5b61079c6112a8565b15156107a757600080fd5b3491506107bf826005546112b890919063ffffffff16565b6005819055506107da600454836112d490919063ffffffff16565b90506107e6838261130c565b6107ee6113a5565b7ff4b351c7293f3c20fc9912c61adbe9823a6de3162bde18c98eb6feeae232f8618382604051808373ffffffffffffffffffffffffffffffffffffffff1673ffffffffffffffffffffffffffffffffffffffff1681526020018281526020019250505060405180910390a1505050565b6108db826001836040518082805190602001908083835b60208310151561089a5780518252602082019150602081019050602083039250610875565b6001836020036101000a038019825116818451168082178552505050505050905001915050908152602001604051809103902061141090919063ffffffff16565b5050565b6040805190810160405280600981526020017f77686974656c697374000000000000000000000000000000000000000000000081525081565b6000610997836001846040518082805190602001908083835b6020831015156109565780518252602082019150602081019050602083039250610931565b6001836020036101000a038019825116818451168082178552505050505050905001915050908152602001604051809103902061142990919063ffffffff16565b905092915050565b60008060009054906101000a900473ffffffffffffffffffffffffffffffffffffffff1673ffffffffffffffffffffffffffffffffffffffff163373ffffffffffffffffffffffffffffffffffffffff161415156109fc57600080fd5b600090505b8151811015610a3757610a2a8282815181101515610a1b57fe5b90602001906020020151610a3b565b8080600101915050610a01565b5050565b6000809054906101000a900473ffffffffffffffffffffffffffffffffffffffff1673ffffffffffffffffffffffffffffffffffffffff163373ffffffffffffffffffffffffffffffffffffffff16141515610a9657600080fd5b610ad5816040805190810160405280600981526020017f77686974656c6973740000000000000000000000000000000000000000000000815250611482565b50565b60045481565b60055481565b600360009054906101000a900473ffffffffffffffffffffffffffffffffffffffff1681565b6000809054906101000a900473ffffffffffffffffffffffffffffffffffffffff1673ffffffffffffffffffffffffffffffffffffffff163373ffffffffffffffffffffffffffffffffffffffff16141515610b6557600080fd5b6000809054906101000a900473ffffffffffffffffffffffffffffffffffffffff1673ffffffffffffffffffffffffffffffffffffffff167ff8df31144d9c2f0f6b59d69b8b98abd5459d07f2742c4df920b25aae33c6482060405160405180910390a260008060006101000a81548173ffffffffffffffffffffffffffffffffffffffff021916908373ffffffffffffffffffffffffffffffffffffffff160217905550565b6000809054906101000a900473ffffffffffffffffffffffffffffffffffffffff1673ffffffffffffffffffffffffffffffffffffffff163373ffffffffffffffffffffffffffffffffffffffff16141515610c6757600080fd5b610ca6816040805190810160405280600981526020017f77686974656c69737400000000000000000000000000000000000000000000008152506115b6565b50565b33610ce9816040805190810160405280600981526020017f77686974656c697374000000000000000000000000000000000000000000000081525061085e565b610cf383836116ea565b1515610cfe57600080fd5b610d08838361179e565b600260009054906101000a900473ffffffffffffffffffffffffffffffffffffffff1673ffffffffffffffffffffffffffffffffffffffff166323b872dd600360009054906101000a900473ffffffffffffffffffffffffffffffffffffffff1685856040518463ffffffff167c0100000000000000000000000000000000000000000000000000000000028152600401808473ffffffffffffffffffffffffffffffffffffffff1673ffffffffffffffffffffffffffffffffffffffff1681526020018373ffffffffffffffffffffffffffffffffffffffff1673ffffffffffffffffffffffffffffffffffffffff1681526020018281526020019350505050602060405180830381600087803b158015610e2357600080fd5b505af1158015610e37573d6000803e3d6000fd5b505050506040513d6020811015610e4d57600080fd5b8101908080519060200190929190505050507f0e3d545f55fec02ded3e0451271c71c0ab08d81ba84febd0ce958954a79d76398383604051808373ffffffffffffffffffffffffffffffffffffffff1673ffffffffffffffffffffffffffffffffffffffff1681526020018281526020019250505060405180910390a1505050565b6000809054906101000a900473ffffffffffffffffffffffffffffffffffffffff1681565b600033610f36816040805190810160405280600981526020017f77686974656c697374000000000000000000000000000000000000000000000081525061085e565b610f40848461179e565b610f556004548461183790919063ffffffff16565b9150600260009054906101000a900473ffffffffffffffffffffffffffffffffffffffff1673ffffffffffffffffffffffffffffffffffffffff166323b872dd600360009054906101000a900473ffffffffffffffffffffffffffffffffffffffff1686856040518463ffffffff167c0100000000000000000000000000000000000000000000000000000000028152600401808473ffffffffffffffffffffffffffffffffffffffff1673ffffffffffffffffffffffffffffffffffffffff1681526020018373ffffffffffffffffffffffffffffffffffffffff1673ffffffffffffffffffffffffffffffffffffffff1681526020018281526020019350505050602060405180830381600087803b15801561107257600080fd5b505af1158015611086573d6000803e3d6000fd5b505050506040513d602081101561109c57600080fd5b8101908080519060200190929190505050507f4771227682ca261f1d489ef582843994fc7104f7fcc0b6865f16a3caa8379cae8484604051808373ffffffffffffffffffffffffffffffffffffffff1673ffffffffffffffffffffffffffffffffffffffff1681526020018281526020019250505060405180910390a150505050565b6000611160826040805190810160405280600981526020017f77686974656c6973740000000000000000000000000000000000000000000000815250610918565b9050919050565b60066020528060005260406000206000915090505481565b60008060009054906101000a900473ffffffffffffffffffffffffffffffffffffffff1673ffffffffffffffffffffffffffffffffffffffff163373ffffffffffffffffffffffffffffffffffffffff161415156111dc57600080fd5b600090505b81518110156112175761120a82828151811015156111fb57fe5b90602001906020020151610c0c565b80806001019150506111e1565b5050565b6000809054906101000a900473ffffffffffffffffffffffffffffffffffffffff1673ffffffffffffffffffffffffffffffffffffffff163373ffffffffffffffffffffffffffffffffffffffff1614151561127657600080fd5b61127f8161184d565b50565b600260009054906101000a900473ffffffffffffffffffffffffffffffffffffffff1681565b6000806000341190508091505090565b600081830190508281101515156112cb57fe5b80905092915050565b6000808314156112e75760009050611306565b81830290508183828115156112f857fe5b0414151561130257fe5b8090505b92915050565b61135e81600660008573ffffffffffffffffffffffffffffffffffffffff1673ffffffffffffffffffffffffffffffffffffffff168152602001908152602001600020546112b890919063ffffffff16565b600660008473ffffffffffffffffffffffffffffffffffffffff1673ffffffffffffffffffffffffffffffffffffffff168152602001908152602001600020819055505050565b600360009054906101000a900473ffffffffffffffffffffffffffffffffffffffff1673ffffffffffffffffffffffffffffffffffffffff166108fc349081150290604051600060405180830381858888f1935050505015801561140d573d6000803e3d6000fd5b50565b61141a8282611429565b151561142557600080fd5b5050565b60008260000160008373ffffffffffffffffffffffffffffffffffffffff1673ffffffffffffffffffffffffffffffffffffffff16815260200190815260200160002060009054906101000a900460ff16905092915050565b6114ff826001836040518082805190602001908083835b6020831015156114be5780518252602082019150602081019050602083039250611499565b6001836020036101000a038019825116818451168082178552505050505050905001915050908152602001604051809103902061194790919063ffffffff16565b8173ffffffffffffffffffffffffffffffffffffffff167fd211483f91fc6eff862467f8de606587a30c8fc9981056f051b897a418df803a826040518080602001828103825283818151815260200191508051906020019080838360005b8381101561157857808201518184015260208101905061155d565b50505050905090810190601f1680156115a55780820380516001836020036101000a031916815260200191505b509250505060405180910390a25050565b611633826001836040518082805190602001908083835b6020831015156115f257805182526020820191506020810190506020830392506115cd565b6001836020036101000a03801982511681845116808217855250505050505090500191505090815260200160405180910390206119a590919063ffffffff16565b8173ffffffffffffffffffffffffffffffffffffffff167fbfec83d64eaa953f2708271a023ab9ee82057f8f3578d548c1a4ba0b5b700489826040518080602001828103825283818151815260200191508051906020019080838360005b838110156116ac578082015181840152602081019050611691565b50505050905090810190601f1680156116d95780820380516001836020036101000a031916815260200191505b509250505060405180910390a25050565b6000806000806000600660008873ffffffffffffffffffffffffffffffffffffffff1673ffffffffffffffffffffffffffffffffffffffff16815260200190815260200160002054119250600085119150600660008773ffffffffffffffffffffffffffffffffffffffff1673ffffffffffffffffffffffffffffffffffffffff16815260200190815260200160002054851115905081801561178a5750805b80156117935750825b935050505092915050565b6117f081600660008573ffffffffffffffffffffffffffffffffffffffff1673ffffffffffffffffffffffffffffffffffffffff16815260200190815260200160002054611a0390919063ffffffff16565b600660008473ffffffffffffffffffffffffffffffffffffffff1673ffffffffffffffffffffffffffffffffffffffff168152602001908152602001600020819055505050565b6000818381151561184457fe5b04905092915050565b600073ffffffffffffffffffffffffffffffffffffffff168173ffffffffffffffffffffffffffffffffffffffff161415151561188957600080fd5b8073ffffffffffffffffffffffffffffffffffffffff166000809054906101000a900473ffffffffffffffffffffffffffffffffffffffff1673ffffffffffffffffffffffffffffffffffffffff167f8be0079c531659141344cd1fd0a4f28419497f9722a3daafe3b4186f6b6457e060405160405180910390a3806000806101000a81548173ffffffffffffffffffffffffffffffffffffffff021916908373ffffffffffffffffffffffffffffffffffffffff16021790555050565b60008260000160008373ffffffffffffffffffffffffffffffffffffffff1673ffffffffffffffffffffffffffffffffffffffff16815260200190815260200160002060006101000a81548160ff0219169083151502179055505050565b60018260000160008373ffffffffffffffffffffffffffffffffffffffff1673ffffffffffffffffffffffffffffffffffffffff16815260200190815260200160002060006101000a81548160ff0219169083151502179055505050565b6000828211151515611a1157fe5b8183039050929150505600a165627a7a72305820f15bcd4e606cc50f0950f3dcf6df02b1685594b99555579f1f93f1e2ffd214050029",
  "source": "pragma solidity ^0.4.24;\n\nimport './LonToken.sol';\n\nimport 'zeppelin-solidity/contracts/math/SafeMath.sol';\nimport './Whitelist.sol'; //until new zeppelin version\n\ncontract LonTokenSaleEvent is Whitelist {\n\n  using SafeMath for uint256;\n\n  // The token being sold\n  LonToken public token;\n\n  // address where funds are collected\n  address public wallet;\n\n  // how many mei per wei\n  uint256 public rate;\n\n  // amount of raised money in wei\n  uint256 public weiRaised;\n\n  // outstanding token purchases addresses\n  mapping(address => uint256) public outstanding;\n\n  /**\n   * event for token purchase logging\n   * @param purchaser who paid for the tokens\n   * @param tokens amount of tokens purchased\n   */\n  event TokenPurchase(address purchaser, uint256 tokens);\n\n  /**\n   * Event for token issuance\n   * @param purchaser Address who purchased the tokens\n   * @param tokens amount of tokens purchased\n   */\n  event TokenIssue(address purchaser, uint256 tokens);\n\n  /**\n   * Event for declining token\n   * @param purchaser Address who purchased the tokens\n   * @param tokens amount of tokens purchased\n   */\n  event TokenDecline(address purchaser, uint256 tokens);\n\n  constructor(uint256 _rate, address _wallet, address _token) public {\n    require(_rate > 0);\n    require(_wallet != address(0));\n\n    token = LonToken(_token);\n    rate = _rate;\n    wallet = _wallet;\n  }\n\n  // fallback function can be used to buy tokens\n  function () external payable {\n    buyTokens(msg.sender);\n  }\n\n  // low level token purchase function\n  function buyTokens(address beneficiary) public payable {\n    require(beneficiary != address(0));\n    require(validPurchase());\n\n    uint256 weiAmount = msg.value;\n\n    // update state\n    weiRaised = weiRaised.add(weiAmount);\n\n    // calculate token amount to be created\n    uint256 tokens = weiAmount.mul(rate);\n\n    // increase outstanding purchases and emit event\n    increaseOutstandingPurchases(beneficiary, tokens);\n\n    // send funds\n    forwardFunds();\n\n    // send event\n    emit TokenPurchase(beneficiary, tokens);\n  }\n\n  // send ether to the fund collection wallet\n  // override to create custom fund forwarding mechanisms\n  function forwardFunds() internal {\n    wallet.transfer(msg.value);\n  }\n\n  // @return true if the transaction can buy tokens\n  function validPurchase() internal view returns (bool) {\n    bool nonZeroPurchase = msg.value > 0;\n    return nonZeroPurchase;\n  }\n\n  // Issue tokens\n\n  function issue(address beneficiary, uint256 tokens) external \n    onlyIfWhitelisted(msg.sender) {\n    \n    // check that there is outstanding tokens to issue\n    require(areTokensOutstanding(beneficiary, tokens));\n\n    decreaseOutstandingPurchases(beneficiary, tokens);\n\n    // send our tokens\n    token.transferFrom(wallet, beneficiary, tokens);\n    emit TokenIssue(beneficiary, tokens);\n  }\n\n  // Decline the tokens\n\n  function decline(address beneficiary, uint256 tokens) external \n    onlyIfWhitelisted(msg.sender) {\n    decreaseOutstandingPurchases(beneficiary, tokens);\n\n    //refund the ETH value\n    uint256 weiAmount = tokens.div(rate);\n    token.transferFrom(wallet, beneficiary, weiAmount); \n   \n    emit TokenDecline(beneficiary, tokens);\n  }\n\n  // Check that enough tokens have been purchased\n\n  function areTokensOutstanding(address beneficiary, uint256 tokens) internal view returns (bool) {\n    bool hasOutstanding = outstanding[beneficiary] > 0;\n    bool isValid = tokens > 0;\n    bool isEnough = tokens <= outstanding[beneficiary];\n    return isValid && isEnough && hasOutstanding;\n  }\n\n  // Increase the number of purchased tokens awaiting issuance\n\n  function increaseOutstandingPurchases(address beneficiary, uint256 tokens) internal {\n    outstanding[beneficiary] = outstanding[beneficiary].add(tokens);\n  }\n\n  // Decrease the number of purchased tokens awaiting issuance\n\n  function decreaseOutstandingPurchases(address beneficiary, uint256 tokens) internal {\n    outstanding[beneficiary] = outstanding[beneficiary].sub(tokens);\n  }\n\n}",
  "sourcePath": "/Users/shakieraleonard/Desktop/Dev/crypto/contracts/LonTokenSaleEvent.sol",
  "compiler": {
    "name": "solc",
    "version": "0.4.26+commit.4563c3fc.Emscripten.clang"
  },
  "schemaVersion": "2.0.3",
  "updatedAt": "2020-08-31T11:58:10.368Z"
}