{
  "contractName": "LonWithdraw",
  "abi": [
    {
      "constant": true,
      "inputs": [
        {
          "name": "",
          "type": "uint256"
        }
      ],
      "name": "requests",
      "outputs": [
        {
          "name": "requester",
          "type": "address"
        },
        {
          "name": "user_guid",
          "type": "uint256"
        },
        {
          "name": "gas",
          "type": "uint256"
        },
        {
          "name": "amount",
          "type": "uint256"
        }
      ],
      "payable": false,
      "stateMutability": "view",
      "type": "function"
    },
    {
      "constant": true,
      "inputs": [],
      "name": "token",
      "outputs": [
        {
          "name": "",
          "type": "address"
        }
      ],
      "payable": false,
      "stateMutability": "view",
      "type": "function"
    },
    {
      "inputs": [
        {
          "name": "_token",
          "type": "address"
        }
      ],
      "payable": false,
      "stateMutability": "nonpayable",
      "type": "constructor"
    },
    {
      "payable": true,
      "stateMutability": "payable",
      "type": "fallback"
    },
    {
      "anonymous": false,
      "inputs": [
        {
          "indexed": false,
          "name": "requester",
          "type": "address"
        },
        {
          "indexed": false,
          "name": "user_guid",
          "type": "uint256"
        },
        {
          "indexed": false,
          "name": "gas",
          "type": "uint256"
        },
        {
          "indexed": false,
          "name": "amount",
          "type": "uint256"
        }
      ],
      "name": "WithdrawalRequest",
      "type": "event"
    },
    {
      "anonymous": false,
      "inputs": [
        {
          "indexed": false,
          "name": "requester",
          "type": "address"
        },
        {
          "indexed": false,
          "name": "user_guid",
          "type": "uint256"
        },
        {
          "indexed": false,
          "name": "amount",
          "type": "uint256"
        }
      ],
      "name": "WithdrawalComplete",
      "type": "event"
    },
    {
      "constant": false,
      "inputs": [
        {
          "name": "user_guid",
          "type": "uint256"
        },
        {
          "name": "amount",
          "type": "uint256"
        }
      ],
      "name": "request",
      "outputs": [],
      "payable": true,
      "stateMutability": "payable",
      "type": "function"
    },
    {
      "constant": false,
      "inputs": [
        {
          "name": "requester",
          "type": "address"
        },
        {
          "name": "user_guid",
          "type": "uint256"
        },
        {
          "name": "gas",
          "type": "uint256"
        },
        {
          "name": "amount",
          "type": "uint256"
        }
      ],
      "name": "complete",
      "outputs": [
        {
          "name": "",
          "type": "bool"
        }
      ],
      "payable": false,
      "stateMutability": "nonpayable",
      "type": "function"
    }
  ],
  "bytecode": "0x608060405234801561001057600080fd5b5060405160208061072983398101806040528101908080519060200190929190505050806000806101000a81548173ffffffffffffffffffffffffffffffffffffffff021916908373ffffffffffffffffffffffffffffffffffffffff160217905550506106a6806100836000396000f300608060405260043610610062576000357c0100000000000000000000000000000000000000000000000000000000900463ffffffff1680636f15923d146100ab57806381d12c58146101245780638bc802fb146101a6578063fc0c546a146101d0575b3373ffffffffffffffffffffffffffffffffffffffff166108fc349081150290604051600060405180830381858888f193505050501580156100a8573d6000803e3d6000fd5b50005b3480156100b757600080fd5b5061010a600480360381019080803573ffffffffffffffffffffffffffffffffffffffff169060200190929190803590602001909291908035906020019092919080359060200190929190505050610227565b604051808215151515815260200191505060405180910390f35b34801561013057600080fd5b5061014f60048036038101908080359060200190929190505050610464565b604051808573ffffffffffffffffffffffffffffffffffffffff1673ffffffffffffffffffffffffffffffffffffffff16815260200184815260200183815260200182815260200194505050505060405180910390f35b6101ce60048036038101908080359060200190929190803590602001909291905050506104b4565b005b3480156101dc57600080fd5b506101e5610616565b604051808273ffffffffffffffffffffffffffffffffffffffff1673ffffffffffffffffffffffffffffffffffffffff16815260200191505060405180910390f35b600083600160008681526020019081526020016000206001015414151561024d57600080fd5b82600160008681526020019081526020016000206002015414151561027157600080fd5b81600160008681526020019081526020016000206003015414151561029557600080fd5b6000809054906101000a900473ffffffffffffffffffffffffffffffffffffffff1673ffffffffffffffffffffffffffffffffffffffff166323b872dd3387856040518463ffffffff167c0100000000000000000000000000000000000000000000000000000000028152600401808473ffffffffffffffffffffffffffffffffffffffff1673ffffffffffffffffffffffffffffffffffffffff1681526020018373ffffffffffffffffffffffffffffffffffffffff1673ffffffffffffffffffffffffffffffffffffffff1681526020018281526020019350505050602060405180830381600087803b15801561038d57600080fd5b505af11580156103a1573d6000803e3d6000fd5b505050506040513d60208110156103b757600080fd5b8101908080519060200190929190505050507fcbc30e520b47f25934e3caa0d827b8cb3e61863b7762ea111ec852fd5c81d8f6858584604051808473ffffffffffffffffffffffffffffffffffffffff1673ffffffffffffffffffffffffffffffffffffffff168152602001838152602001828152602001935050505060405180910390a16000600160008681526020019081526020016000206003018190555060019050949350505050565b60016020528060005260406000206000915090508060000160009054906101000a900473ffffffffffffffffffffffffffffffffffffffff16908060010154908060020154908060030154905084565b60006104be61063b565b3491506000821115156104d057600080fd5b6000831115156104df57600080fd5b6080604051908101604052803373ffffffffffffffffffffffffffffffffffffffff168152602001858152602001348152602001848152509050806001600086815260200190815260200160002060008201518160000160006101000a81548173ffffffffffffffffffffffffffffffffffffffff021916908373ffffffffffffffffffffffffffffffffffffffff1602179055506020820151816001015560408201518160020155606082015181600301559050507f317c0f5ab60805d3e3fb6aaa61ccb77253bbb20deccbbe49c544de4baa4d7f8f33853486604051808573ffffffffffffffffffffffffffffffffffffffff1673ffffffffffffffffffffffffffffffffffffffff16815260200184815260200183815260200182815260200194505050505060405180910390a150505050565b6000809054906101000a900473ffffffffffffffffffffffffffffffffffffffff1681565b608060405190810160405280600073ffffffffffffffffffffffffffffffffffffffff16815260200160008152602001600081526020016000815250905600a165627a7a72305820b2bb0ec33139401658b5a83c8f32aa7daaf3e4a5ae4225f22db23976f2ae4e4c0029",
  "source": "pragma solidity ^0.4.24;\n\nimport './LonToken.sol';\n\ncontract LonWithdraw {\n\n  struct Withdrawal {\n    address requester;\n    uint256 user_guid;\n    uint256 gas;\n    uint256 amount;\n  }\n\n  LonToken public token;\n \n  mapping(uint256 => Withdrawal) public requests;\n\n  /**\n   * event upon requesting a withdrawal\n   * @param requester who requested the withdrawal\n   * @param user_guid the lon user guid of the requester\n   * @param gas the amount in ethereum that was sent to cover the gas\n   * @param amount weis requested\n   */\n  event WithdrawalRequest(address requester, uint256 user_guid, uint256 gas, uint256 amount);\n\n  /**\n   * event upon completing a withdrawal\n   * @param requester who requested the withdrawal\n   * @param user_guid the lon user guid of the requester\n   * @param amount weis requested\n   */\n  event WithdrawalComplete(address requester, uint256 user_guid, uint256 amount);\n\n  constructor(address _token) public {\n    token = LonToken(_token);\n  }\n\n  function request(uint256 user_guid, uint256 amount) public payable {\n    \n    uint256 gas = msg.value;\n\n    require(gas > 0);\n    require(amount > 0);\n\n    Withdrawal memory _withdrawal = Withdrawal(\n      msg.sender,\n      user_guid,\n      msg.value,\n      amount\n    );\n    \n    requests[user_guid] = _withdrawal;\n\n    emit WithdrawalRequest(msg.sender, user_guid, msg.value, amount);\n  }\n\n  // do nothing if we get sent ether\n  function() external payable { \n    msg.sender.transfer(msg.value);\n  }\n\n  function complete(address requester, uint256 user_guid, uint256 gas, uint256 amount) public returns (bool) {\n    \n    require(requests[user_guid].user_guid == user_guid);\n    require(requests[user_guid].gas == gas);\n    require(requests[user_guid].amount == amount);\n\n    token.transferFrom(msg.sender, requester, amount);\n\n    emit WithdrawalComplete(requester, user_guid, amount);\n    \n    //zero the requested withdrawl amaount\n    requests[user_guid].amount = 0;\n\n    return true;\n  }\n\n}\n",
  "sourcePath": "/Users/shakieraleonard/Desktop/Dev/crypto/contracts/LonWithdraw.sol",
  "compiler": {
    "name": "solc",
    "version": "0.4.26+commit.4563c3fc.Emscripten.clang"
  },
  "schemaVersion": "2.0.3",
  "updatedAt": "2020-08-31T11:58:10.382Z"
}